:020000040000FA
:100000000C94C4050C94EC050C94EC050C946F1C3A
:100010000C946F1C0C946F1C0C94EC050C94EC0568
:100020000C94EC050C94EC050C94EC050C94EC058C
:100030000C94EC050C94EC050C94EC050C94EC057C
:100040000C94061B0C94EC050C94D41A0C94AE1A68
:100050000C94EC050C94EC050C94EC050C94EC055C
:100060000C94501B0C94EC0500407A10F35A00A03D
:10007000724E18090010A5D4E80000E87648170071
:1000800000E40B54020000CA9A3B000000E1F505B1
:10009000000080969800000040420F000000A086FB
:1000A00001000000102700000000E803000000002D
:1000B0006400000000000A000000000001000000D1
:1000C00000002C76D888DC674F0823DFC1DFAE59EB
:1000D000E1B1B796E5E3E453C63AE651997696E87E
:1000E000E6C28426EB898C9B62ED407C6FFCEFBC02
:1000F0009C9F40F2BAA56FA5F490055A2AF75C932D
:100100006B6CF9676DC11BFCE0E40D47FEF520E662
:10011000B500D0ED902E0300943577050080841E45
:10012000080000204E0A000000C80C333333330FA0
:10013000986E12831141EF8D2114893BE65516CF3D
:10014000FEE6DB18D1844B381BF77C1D901DA4BB49
:10015000E424203284725E228100C9F124ECA1E5FE
:100160003D272200FF210000000000230026002977
:100170000000000000003E5B4F5B3E3E6B4F6B3E5D
:100180001C3E7C3E1C183C7E3C181C577D571C1C9A
:100190005E7F5E1C00183C1800FFE7C3E7FF0018F5
:1001A000241800FFE7DBE7FF30483A060E262979DE
:1001B0002926407F050507407F05253F5A3CE73C3F
:1001C0005A7F3E1C1C08081C1C3E7F14227F2214F0
:1001D0005F5F005F5F06097F017F006689956A6047
:1001E0006060606094A2FFA29408047E040810205E
:1001F0007E201008082A1C08081C2A08081E101057
:1002000010100C1E0C1E0C30383E3830060E3E0E00
:1002100006000000000000005F000000070007006B
:10022000147F147F14242A7F2A1223130864623651
:10023000495620500008070300001C2241000041DD
:10024000221C002A1C7F1C2A08083E080800807017
:10025000300008080808080000606000201008044A
:10026000023E5149453E00427F400072494949469D
:100270002141494D331814127F1027454545393C1B
:100280004A49493141211109073649494936464908
:1002900049291E000014000000403400000008142A
:1002A00022411414141414004122140802015909A3
:1002B000063E415D594E7C1211127C7F49494936F8
:1002C0003E414141227F4141413E7F494949417F71
:1002D000090909013E414151737F0808087F004127
:1002E0007F41002040413F017F081422417F404070
:1002F00040407F021C027F7F0408107F3E41414145
:100300003E7F090909063E4151215E7F09192946B0
:10031000264949493203017F01033F4040403F1FC6
:100320002040201F3F4038403F63140814630304FB
:100330007804036159494D43007F4141410204085B
:100340001020004141417F0402010204404040402E
:1003500040000307080020545478407F2844443864
:100360003844444428384444287F385454541800AE
:10037000087E090218A4A49C787F0804047800442D
:100380007D40002040403D007F1028440000417F18
:1003900040007C047804787C0804047838444444A1
:1003A00038FC1824241818242418FC7C0804040899
:1003B000485454542404043F44243C4040207C1CB2
:1003C0002040201C3C4030403C44281028444C90A5
:1003D00090907C4464544C440008364100000077FF
:1003E0000000004136080002010204023C262326D8
:1003F0003C1EA1A161123A4040207A38545455590C
:100400002155557941225454784221555478402041
:10041000545579400C1E527212395555555939545C
:1004200054545939555454580000457C41000245F4
:100430007D420001457C407D1211127DF028252867
:10044000F07C545545002054547C547C0A097F4963
:1004500032494949323A4444443A324A4848303AA7
:100460004141217A3A42402078009DA0A07D3D4242
:1004700042423D3D4040403D3C24FF2424487E49CB
:1004800043662B2FFC2F2BFF0929F620C0887E09FD
:100490000320545479410000447D413048484A3299
:1004A000384040227A007A0A0A727D0D19317D2681
:1004B00029292F28262929292630484D4020380867
:1004C00008080808080808382F10C8ACBA2F1028E8
:1004D00034FA00007B000008142A142222142A1483
:1004E000085500550055AA55AA55AAFF55FF55FFB6
:1004F000000000FF00101010FF00141414FF001083
:1005000010FF00FF1010F010F0141414FC0014146D
:10051000F700FF0000FF00FF1414F404FC1414178C
:10052000101F10101F101F1414141F00101010F0B3
:10053000000000001F101010101F10101010F010FD
:10054000000000FF101010101010101010FF10000D
:100550000000FF140000FF00FF00001F1017000044
:10056000FC04F414141710171414F404F40000FF1E
:1005700000F714141414141414F700F714141417B7
:100580001410101F101F141414F4141010F010F095
:1005900000001F101F0000001F14000000FC1400CA
:1005A00000F010F01010FF10FF141414FF141010BE
:1005B000101F00000000F010FFFFFFFFFFF0F0F041
:1005C000F0F0FFFFFF0000000000FFFF0F0F0F0F14
:1005D0000F3844443844FC4A4A4A347E0202060634
:1005E000027E027E0263554941633844443C044024
:1005F0007E201E2006027E020299A5E7A5991C2AEC
:10060000492A1C4C7201724C304A4D4D30304878AA
:100610004830BC625A463D3E494949007E010101CD
:100620007E2A2A2A2A2A44445F444440514A4440AC
:1006300040444A51400000FF0103E080FF000008F1
:10064000086B6B083612362436060F090F060000B9
:1006500018180000001010003040FF0101001F01B9
:10066000011E00191D1712003C3C3C3C000000001C
:1006700000000103070F1F3F7F0080C0E0F0F8FC7F
:10068000FE00000008000201000003040700000053
:10069000000000000000000000240027002A00DB0A
:1006A00040A4A62EAF2000A1C8D300408DAED580B7
:1006B000A801020408102040800102040810200153
:1006C000020408102000000000250028002B000470
:1006D00004040404040404020202020202030303E9
:1006E00003030300006000000000000000000000A1
:1006F00000000000E000000000000000000000001A
:10070000000001E000000000000000000000000008
:100710000001F000000000000000000000000000E8
:1007200003F00000000000000000000000000007CF
:10073000F00000000000000000000000000007F8CA
:10074000000000000000000000000000000FF800A2
:10075000000003C0007E000001E0007F0FF80000F1
:100760000003C000FE000001E000FFEFF800000001
:1007700003C000FE000001E000FFFFF800000003DE
:10078000C000F00000000F007FFE7FC0000003C02B
:1007900000F00000000F003FFE7FF83FF1FBCFFCB0
:1007A000FEF3BC3DEFE01FFE7FFF7FFBFFDFFEFEA1
:1007B000FFBC3DEFE01FC6FFFF7FFBFFDFFEFEFF3C
:1007C000BC3DEFE00FE3C7FE787BC3DE1EF0FFBC4D
:1007D0003DEF0007FF87FC787BC3DE1EF0F83C3D51
:1007E000EF0001FFFFF0007BC3C01EF0F03C3DEFC7
:1007F0000001F37FE03FFBC3CFFEF0F03C3DEF0094
:1008000003E33F807FFBC3DFFEF0F03C3DEF0007DA
:10081000E73C00787BC3DE1EF0F03C3DEF0007FFB5
:10082000BE00787BC3DE1EF0F03C3DEF0007FFFE0C
:1008300000787BC3DE1EF0F03C3DEF000FFFFE00B2
:100840007FFBFFDFFEF0F03FFDEFE00FFFFF007FDB
:10085000FBFFDFFEF0F03FFDEFE00FF9FF003E7918
:10086000F9CF9EF0F01F3DE7E01FF1FF0000000010
:1008700000000000000000001F80FF007FFFFFFF5E
:10088000FFFFFFFFFFFFE01C007F007FFFFFFFFE79
:10089000B46D888D18E000001F007FFFFFFFFE95FC
:1008A000AD7DB577E000000F007FFFFFFFFEA5AD37
:1008B0009D8D19E0000006007FFFFFFFFEB5ADED46
:1008C000B57EE00000000000018000000000000094
:1008D000000000038000000000000000000007C0CE
:1008E00000000000000000000007C0000000000041
:1008F000000000000FC00000000000000000001F0A
:10090000E00000000000000000001FE00000000008
:1009100000000000003FE0000000000000000000B8
:100920003FF00000000000000000007FF000000029
:10093000000000001FF87FF0000000000000003FF2
:10094000FE7FF0000000000000003FFF7FF000008D
:1009500000000000001FFFFBE0000000000000009E
:100960000FFFF9FFC00000000000000FFFF9FFF8C3
:1009700000000000000007FFF1FFFF000000000082
:100980000003FC73FFFF80000000000001FE3FFF3A
:10099000FF80000000000000FF1E0FFF00000000AD
:1009A0000000007FFE1FFC000000000000003FFF71
:1009B000FFF8000000000000000FDFFFE000000073
:1009C000000000001F19FFC0000000000000003FF1
:1009D0003CFF00000000000000007E7CF8000000EA
:1009E00000000000007FFE7C00000000000000000E
:1009F000FFFFFC0000000000000000FFFFFE000001
:100A0000000000000000FFFFFE00000000000000EA
:100A100001FFEFFE0000000000000001FFCFFE001C
:100A200000000000000003FF07FE000000000000BF
:100A30000003FC07FE0000000000000003F003FEBE
:100A400000000000000000018000FE000000000027
:100A500000000000007E0000000000000000000018
:100A60003E000000000000000000000C000000003C
:100A70000000078000FC000003C0000000078001A8
:100A8000FC000003C0000000078001FC000003C060
:100A9000000000078001E00000001E000000078049
:100AA00001E00000001E007FE3F79FF9FDE7787B7F
:100AB000DFC0FFF7FFBFFDFDFF787BDFC0FFF7FF63
:100AC000BFFDFDFF787BDFC0F0F787BC3DE1FF781D
:100AD0007BDE00F0F787BC3DE1F0787BDE0000F7BD
:100AE00087803DE1E0787BDE007FF7879FFDE1E0D6
:100AF000787BDE00FFF787BFFDE1E0787BDE00F06A
:100B0000F787BC3DE1E0787BDE00F0F787BC3DE194
:100B1000E0787BDE00F0F787BC3DE1E0787BDE002B
:100B2000FFF7FFBFFDE1E07FFBDFC0FFF7FFBFFD89
:100B3000E1E07FFBDFC07CF3F39F3DE1E03E7BCF54
:100B4000C00000000000000000000000FFFFFFFFE9
:100B5000FFFFFFFFFFFFC0FFFFFFFFFD68DB111A74
:100B600031C0FFFFFFFFFD2B5AFB6AEFC0FFFFFF05
:100B7000FFFD4B5B3B1A33C0FFFFFFFFFD6B5BDBF1
:100B80006AFDC000E71C072711241FBECFEFD8E085
:100B9000DEBFCDBF24E0ACE7B2E001C01D92AC34B3
:100BA000B207E1F712E0A0E0B1E0EAE7FCE502C03D
:100BB00005900D92AC37B107D9F715E0C3ECD5E03D
:100BC00004C02197FE010E94F82BC23CD107C9F74F
:100BD0000E942B1D0C94302E0C9400003F924F92DB
:100BE0005F926F927F928F929F92AF92BF92CF92BD
:100BF000DF92EF92FF920F931F93CF93DF9300D07A
:100C000000D0CDB7DEB79C838B833B016A015901CD
:100C1000DC01ED91FC910284F385E02D099528011A
:100C2000B7E04B0E511C93E0559447949A95E1F729
:100C3000C6018E0D9F1D9A838983912C812C312CA6
:100C4000F12CE12CC70187709927330C892B59F4BB
:100C5000F70183E0F595E7958A95E1F7E80DF91D31
:100C6000EA0DFB1D349037FE10C0AB81BC81ED91C5
:100C7000FC9111970484F585E02D21E030E0A60178
:100C8000B701660D771DCD010995BFEFEB1AFB0A81
:100C90000E151F05B9F68FEFC81AD80A840C951CDB
:100CA000A981BA81CA16DB0659F6AB81BC81ED91E8
:100CB000FC9111970688F789E02DCD010F900F90D8
:100CC0000F900F90DF91CF911F910F91FF90EF90B8
:100CD000DF90CF90BF90AF909F908F907F906F905C
:100CE0005F904F903F90099408950895AF92BF92FE
:100CF000CF92DF92EF92FF920F931F93CF93DF93E8
:100D00006C017B018B01040F151FEB015E01AE1816
:100D1000BF08C017D10759F06991D601ED91FC9138
:100D20000190F081E02DC6010995892B79F7C50165
:100D3000DF91CF911F910F91FF90EF90DF90CF90B7
:100D4000BF90AF900895FC01538D448D252F30E066
:100D5000842F90E0821B930B541710F0CF960895C8
:100D600001970895FC01918D828D981761F0A28DF5
:100D7000AE0FBF2FB11D5D968C91928D9F5F9F73BB
:100D8000928F90E008958FEF9FEF0895FC01918D71
:100D9000828D981731F0828DE80FF11D858D90E0DE
:100DA00008958FEF9FEF0895FC01918D228D892F7B
:100DB00090E0805C9F4F821B91098F739927089563
:100DC00083E993E00E94D40621E0892B09F420E016
:100DD000822F089580E090E0892B29F00E94E006A0
:100DE00081110C9400000895FC01A48DA80FB92F67
:100DF000B11DA35ABF4F2C91848D90E001968F7343
:100E00009927848FA689B7892C93A089B1898C9161
:100E1000837080648C93938D848D981306C00288B0
:100E2000F389E02D80818F7D80830895EF92FF927A
:100E30000F931F93CF93DF93EC0181E0888F9B8DFD
:100E40008C8D98131AC0E889F989808185FF15C0B7
:100E50009FB7F894EE89FF896083E889F9898081DA
:100E60008370806480839FBF81E090E0DF91CF91A9
:100E70001F910F91FF90EF900895F62E0B8D10E0CB
:100E80000F5F1F4F0F731127E02E8C8D8E110CC03A
:100E90000FB607FCFACFE889F989808185FFF5CF85
:100EA000CE010E94F406F1CFEB8DEC0FFD2FF11D6A
:100EB000E35AFF4FF0829FB7F8940B8FEA89FB89C2
:100EC00080818062CFCFCF93DF93EC01888D882320
:100ED000B9F0AA89BB89E889F9898C9185FD03C09D
:100EE000808186FD0DC00FB607FCF7CF8C9185FF82
:100EF000F2CF808185FFEDCFCE010E94F406E9CFCD
:100F0000DF91CF91089590E0FC01EF57F94F2491C4
:100F1000FC01EF54F94F3491FC01E153F94FE49196
:100F2000EE23C9F0222339F0233001F1A8F4213057
:100F300019F1223029F1F0E0EE0FFF1FEB53F94FCA
:100F4000A591B4918FB7F894EC91611126C03095BA
:100F50003E233C938FBF08952730A9F02830C9F075
:100F6000243049F7809180008F7D03C080918000FC
:100F70008F7780938000DFCF84B58F7784BDDBCF00
:100F800084B58F7DFBCF8091B0008F778093B000C8
:100F9000D2CF8091B0008F7DF9CF3E2BDACFCF93A7
:100FA000DF9390E0FC01EF54F94F24918153994F66
:100FB000FC0184918823D1F090E0880F991FFC01F7
:100FC000EB56F94FA591B491FC01EB53F94FC59144
:100FD000D49161110EC09FB7F8948C91E22FE095E7
:100FE0008E238C932881E223E8839FBFDF91CF91EA
:100FF00008958FB7F894EC91E22BEC938FBFF6CF66
:101000003FB7F8948091780390917903A0917A0387
:10101000B0917B0326B5A89B05C02F3F19F0019620
:10102000A11DB11D3FBFBA2FA92F982F8827BC0142
:10103000CD01620F711D811D911D42E0660F771F6A
:10104000881F991F4A95D1F708958F929F92AF926A
:10105000BF92CF92DF92EF92FF924B015C010E9410
:1010600000086B017C010E9400086C197D098E0943
:101070009F09683E734081059105A8F321E0821A1B
:101080009108A108B10888EEC80E83E0D81EE11CC3
:10109000F11C81149104A104B10429F7FF90EF9091
:1010A000DF90CF90BF90AF909F908F9008952FB713
:1010B000F894609174037091750380917603909118
:1010C00077032FBF0895CF92DF92EF92FF926C01CA
:1010D0000E945708C60ED71E0D2C000CEE08FF0804
:1010E0000E9457086C157D058E059F05C8F3FF907B
:1010F000EF90DF90CF900895EF92FF920F931F93A0
:10110000CF93DF93EC01EC80FD806E157F050CF032
:1011100070C057FF04C0240F351F50E040E08E819F
:101120009F81FA01E20FF31F8E179F071CF49C01A9
:10113000241B350B121613060CF05BC0922F842F64
:101140008695869586958E9DD0018F9DB00D112434
:101150006A0F7B1FAF8DB8A1A60FB71F477049F16B
:1011600088E0841B482F682F70E0FB01E758F94F97
:10117000E491281708F063C0621B71092FEF30E07B
:1011800002C0359527956A95E2F7E22301301105F3
:1011900039F0B0F10230110561F58C91E82702C0F9
:1011A0008C91E82BEC93941720F12C813D81A20FB8
:1011B000B31FE92FE41BE83078F00230110521F568
:1011C0008E2F9C9190959C932C813D81A20FB31FF3
:1011D00088508830B0F7E770EE2359F0F0E0EF5810
:1011E000F94FE49101301105F9F010F102301105C9
:1011F00019F1DF91CF911F910F91FF90EF9008951A
:10120000E0958C91E823CECF81E00115110509F41A
:1012100080E081959E2F8C932C813D81A20FB31F7E
:1012200098509830C0F7D7CF8C91E82BEC93E1CF52
:10123000E0958C91E823FACF8C91E827F7CF013025
:10124000110509F4ADCFE0F20230110509F4A5CF84
:10125000AE0DBF1DAECF0F931F93CF93DF9377FFDC
:1012600004C0260F371F70E060E0DC011496CD91BA
:10127000DC91FB01E20FF31FCE17DF071CF49E0188
:10128000261B370B121613064CF5FA0157FD37963D
:10129000A3E0F595E795AA95E1F7EC9FD001ED9FC6
:1012A000B00DFC9FB00D11246A0F7B1FDC015F960F
:1012B000ED91FC91E60FF71F4770552781E090E014
:1012C00001C0880F4A95EAF7482F0130110559F0FF
:1012D000A8F02E0F3F1F02301105E1F0DF91CF91F2
:1012E0001F910F9108952E0F3F1FE217F307B1F3DF
:1012F0008191DF011197842B8C93F7CF80952E0F6E
:101300003F1FE217F30751F39191DF0111979823E3
:101310009C93F7CFE217F30709F38191DF0111974F
:1013200084278C93F7CF0F931F93FA01DC01569615
:101330004C9156974230E9F04330A1F1413061F5CC
:1013400014964D915C91DA01AE1BBF0BFD01E21BBF
:10135000F30B77FD0BC0DC0116964D915C91641781
:10136000750724F4AB01BF010E942B091F910F9157
:10137000089514964D915C91DA01A61BB70BBD013F
:1013800061507109DC0116964D915C91DA01AE1B3A
:10139000BF0BFD01E21BF30B77FDE8CFAF010E940D
:1013A0007C08E4CF16964D915C91DA01A61BB70B31
:1013B000BD0161507109CDCF0F931F93FA01DC017C
:1013C00056964C9156974230A9F0433091F14130F6
:1013D00019F514964D915C91DA01AE1BBF0BFD011E
:1013E0003197F7FD04C0AB01BF010E947C081F913B
:1013F0000F91089514964D915C91DA01A61BB70BDD
:10140000BD01DC0116964D915C91DA01AE1BBF0B5C
:10141000FD013197621B730BF7FDE9CFDC011696D6
:101420004D915C91E417F50714F7AF010E942B0969
:10143000DECF16964D915C91DA01A61BB70BBD016C
:10144000621B730BCECFFC0177FD64C08085918554
:10145000681779070CF05EC057FD5CC082859385E4
:10146000481759070CF056C086898230B1F0833096
:1014700029F1813041F484819581841B950BAB0166
:10148000BC01615071092130310509F108F443C0F4
:101490002230310509F463C0089584819581DC010F
:1014A000A61BB70BBD016150710986819781DC01D4
:1014B000A41BB50BAD0141505109E5CF8681978141
:1014C000861B970BBA01AC0141505109DCCFCA0110
:1014D00057FD0796A3E095958795AA95E1F7A48116
:1014E000B5818A9F90018B9F300D9A9F300D1124FA
:1014F000620F731F078CF0A1E02DE60FF71F4770F6
:10150000552721E030E001C0220F4A95EAF780819B
:10151000822B80830895CA0157FD079633E0959585
:1015200087953A95E1F7A481B5818A9F90018B9FB9
:10153000300D9A9F300D1124620F731F078CF0A19C
:10154000E02DE60FF71F4770552781E090E001C0BE
:10155000880F4A95EAF7809590818923DACFCA01EE
:1015600057FD079623E0959587952A95E1F7A48185
:10157000B5818A9F90018B9F300D9A9F300D112469
:10158000620F731F078CF0A1E02DE60FF71F477065
:10159000552721E030E001C0220F4A95EAF780810B
:1015A0008227B7CF08958EBD00000DB407FEFDCF92
:1015B0008EB508958CBD9DBD08950895FC0163709E
:1015C000668B8481958126813781613039F0633063
:1015D00029F0918780873387228708953187208774
:1015E0009387828708952F923F924F925F926F92D6
:1015F0007F928F929F92AF92BF92CF92DF92EF92A3
:10160000FF920F931F93CF93DF93CDB7DEB76A9707
:101610000FB6F894DEBF0FBECDBF9A8F898F7A8345
:1016200069834A01D22E18870F833701BC2CDC0155
:1016300059962D913C915A972115310509F015C104
:1016400018968D919C911997681779070CF0D7C15E
:101650001A968D919C91481759070CF0D0C14C2CCB
:10166000512CB6E0CB9E600D711D11247C876B87D9
:10167000161617060CF0C3C1EA2DF0E0FA87E987C9
:1016800093E0EE0FFF1F9A95E1F7F88BEF87CF01FC
:10169000840F951F181619060CF0B1C1A98DBA8DCB
:1016A00058968C91811104C0BFEABD1508F4D394FB
:1016B000A98DBA8DED91FC9111970284F385E02DEF
:1016C000CD010995B5E0DB9EC0011124E981FA81C5
:1016D000FC83EB83312C212C9C012F583E4F388FFB
:1016E0002F8B4A2D50E05E8B4D8BEF89F88DE20DEC
:1016F000F31D44919E828D82D12CC12C69817A8107
:10170000620D731D7A8B698B842F90E09C8B8B8B81
:10171000E98DFA8DA081B18140FF82C0F1E0BF1256
:101720006FC0AF126DC01C96ED91FC912F81388572
:10173000A4014C0D5D1D69897A89898D9A8D099561
:10174000EB89FC89F595E7954E2F5FEFC51AD50A11
:101750006D817E818D899E89680F791F7E836D835F
:1017600098E0C916D10481F6AFEF2A1A3A0AEB8144
:10177000FC81E40DF51DFC83EB83F5E02F163104AD
:1017800009F0B3CF2F81388526153705B9F0A98D1B
:10179000BA8DED91FC91B1E0BB1257C0AB1255C0B0
:1017A00069817A816B5F7F4F0088F189E02D830129
:1017B00028E030E0A401898D9A8D0995A98DBA8D14
:1017C000ED91FC9111970688F789E02DCD016A967D
:1017D0000FB6F894DEBF0FBECDBFDF91CF911F9142
:1017E0000F91FF90EF90DF90CF90BF90AF909F90C0
:1017F0008F907F906F905F904F903F902F900994C3
:101800001E96ED91FC91EF80F88409851A8592016E
:101810004D815E816B817C81898D9A8D099590CFF8
:101820002F8138852615370509F48ACF31E0B312A8
:1018300007C0A31205C01C96ED91FC91930178CFCF
:101840001E96ED91FC917301E0CF6B857C85641948
:1018500075090684F785E02D73010F8518899201BB
:10186000A401898D9A8D0995A9CFF9013496949197
:10187000329745915491D91AB7E0DB9E400D511D26
:101880001124F901259134913C8B2B8BFA01259081
:101890003490FA013296749031963491398B3296A5
:1018A00064903196449041E04C1518F04A1508F0C8
:1018B0007FC0662D062C000C770B7C836B83842DF8
:1018C000042C000C990B9E838D83A98DBA8DED910C
:1018D000FC9111970284F385E02DCD010995512CDF
:1018E000D12CC12CEA2DF0E0FA87E9872B2D30E0CE
:1018F0003C872B87A401440D511D47FC5A95588FF6
:101900004F8B69817A81660D711D67FC7A957E87A0
:101910006D877989C71608F051CF2C2D30E04D81A5
:101920005E81420F531FA985BA854A9FC0014B9F14
:10193000900D5A9F900D1124FC01E80DF91DF88BB4
:10194000EF87852D612C4F89588D420F531F5E8B79
:101950004D8B671408F050C044244394480E8770A0
:1019600041F4C1010196EB89FC89E20DF31DD4908D
:101970001C01D7FE19C0A98DBA8DED91FC91662D81
:1019800070E0B1E0BB1219C0AB1217C02D853E85C7
:10199000620F731F0484F585E02D2F8138854D89F2
:1019A0005E89898D9A8D0995DD0C6394842DD1CF44
:1019B0001E821D821C821B8288CF4B815C81640F3A
:1019C000751FAB85BC856A9FC0016B9F900D7A9F88
:1019D000900D112469817A81680F791F0684F7853B
:1019E000E02DEF80F88409851A859D014F8558897F
:1019F000898D9A8D0995D8CF570CC3948ACF6A9652
:101A00000FB6F894DEBF0FBECDBFDF91CF911F910F
:101A10000F91FF90EF90DF90CF90BF90AF909F908D
:101A20008F907F906F905F904F903F902F90089590
:101A30008F929F92AF92CF92EF92FF920F931F934C
:101A4000CF93DF93EC01262F898D9A8D009709F0B3
:101A500051C06A30D1F41D861C868D8948E0849F70
:101A6000900111248E859F85820F931F9F878E87FB
:101A700081E090E0DF91CF911F910F91FF90EF9067
:101A8000CF90AF909F908F9008956D3089F3CC8860
:101A9000AD888F898823C1F08C859D8536E0C39EF3
:101AA000800D911D1124488559854817590764F404
:101AB0004E855F851D861C8638E0A39EC0011124DB
:101AC000840F951F9F878E87EA88FB88088919896C
:101AD0004E855F856C857D85CE010E94F30A2C8939
:101AE0008C859D8546E0249F800D911D11249D8746
:101AF0008C87BECF6A3069F41D861C86FC0138963F
:101B0000E4912D898E859F85E29F800D911D112482
:101B1000ADCF6D3009F4ACCFFC013496349163172E
:101B200008F4A6CF3296E491E61708F4A1CFFC01A1
:101B3000329685909490462F431B342F47E0349F74
:101B4000800C911C1124F401329634913196E49169
:101B50003323A9F1EE2399F1CC88F4013596E49171
:101B6000AD884F89442301F10E2E000CFF0BE30FCB
:101B7000F11DCE9EA001CF9E500D11246C857D8558
:101B8000460F571F68857985641775076CF44E8575
:101B90005F851D861C86FC013896E491AE9E400D43
:101BA000511D11245F874E87EA88FB8808891989AF
:101BB0004E855F856C857D85CE010E94F30AF40118
:101BC0003496E4912C898C859D85E29F800D911D32
:101BD00011248DCF6F927F928F929F92AF92BF927E
:101BE000CF92DF92EF92FF920F931F93CF93DF93E9
:101BF000EC016B015A0139014801E881F981028445
:101C0000F385E02D0995E881F9810288F389E02DBB
:101C100087019301A501B601CE010995A501480DE3
:101C2000591D41505109E881F9810288F389E02D5D
:101C30009301B601CE010995E881F9810088F18907
:101C4000E02D9401A501B601CE010995C60CD71C63
:101C5000B60161507109E881F9810088F189E02DB0
:101C60009401A501CE010995E881F9810688F789DB
:101C7000E02DCE01DF91CF911F910F91FF90EF905A
:101C8000DF90CF90BF90AF909F908F907F906F909C
:101C900009946F927F928F929F92AF92BF92CF9250
:101CA000DF92EF92FF920F931F93CF93DF935C012C
:101CB000EB016A01490138018701DC01ED91FC91DA
:101CC0006217730719F5641675062CF0962D872D8B
:101CD0003A01C92ED82E9601261937092F5F3F4F9A
:101CE000048CF58DE02DA301BE01C5010995DF919E
:101CF000CF911F910F91FF90EF90DF90CF90BF9009
:101D0000AF909F908F907F906F90089546155705E4
:101D100091F42617370724F0892D4B01C22FD82FB5
:101D20009E01281939092F5F3F4F068CF78DE02D52
:101D3000A601B401DACF0284F385E02D0995D5011F
:101D4000ED91FC910488F589E02D83019401A601B1
:101D5000BE01C5010995D501ED91FC910688F78971
:101D6000E02DC501DF91CF911F910F91FF90EF9072
:101D7000DF90CF90BF90AF909F908F907F906F90AB
:101D80000994EF92FF920F931F93DC011A960D9125
:101D90001C911B9718962D913C911997ED91FC91F0
:101DA00000A0F1A1E02D7B0150E040E070E060E098
:101DB00009951F910F91FF90EF9008954F925F92B8
:101DC0006F927F928F929F92AF92BF92CF92DF924B
:101DD000EF92FF920F931F93CF93DF936C012B0130
:101DE0005A0139014801DC01ED91FC910284F3852F
:101DF000E02D0995E201640C751CD601ED91FC9172
:101E0000C615D7055CF40088F189E02D870194019F
:101E1000A501BE01C60109952196EFCF0688F78975
:101E2000E02DC601DF91CF911F910F91FF90EF90B0
:101E3000DF90CF90BF90AF909F908F907F906F90EA
:101E40005F904F9009948F929F92AF92BF92CF92E2
:101E5000DF92EF92FF920F931F93CF93DF93EC01EA
:101E60005B014A016901E881F9810284F385E02D73
:101E7000099595012C0D3D1D21503109E881F9810D
:101E80000488F589E02D78018401A401B501CE0113
:101E90000995E881F9810688F789E02DCE01DF9167
:101EA000CF911F910F91FF90EF90DF90CF90BF9057
:101EB000AF909F908F9009948F929F92AF92BF9214
:101EC000CF92DF92EF92FF920F931F93CF93DF9306
:101ED000EC015B014A0169017801E881F981028422
:101EE000F385E02D0995C80CD91C86010150110914
:101EF000E881F9810488F589E02D9501A401B501F7
:101F0000CE010995E881F9810688F789E02DCE0197
:101F1000DF91CF911F910F91FF90EF90DF90CF90C5
:101F2000BF90AF909F908F9009940895EF92FF9289
:101F30000F931F93DC01ED91FC9100A0F1A1E02D26
:101F400009951F910F91FF90EF9008950F931F93A4
:101F5000DC01ED91FC91068CF78DE02D09951F9128
:101F60000F9108950F931F93DC01ED91FC91048C68
:101F7000F58DE02D09951F910F910895DC01ED91EC
:101F8000FC910084F185E02D09942F923F924F92AD
:101F90005F926F927F928F929F92AF92BF92CF92F9
:101FA000DF92EF92FF920F931F93CF93DF9300D0B6
:101FB00000D000D0CDB7DEB73C016A013E832D834F
:101FC000FC82EB825801A41AB50AB7FE03C0B19493
:101FD000A194B1088D809E80861A970A97FE03C04F
:101FE0009194819491088A149B045CF0902F812F26
:101FF0000D811E819D838E839C2D8D2D6B01692FFC
:10200000782F0C151D055CF09D818E817E836D837C
:10201000692F782F902F812F8601C92ED82E160177
:10202000201A310A2B012D813E81421A530A57FE94
:1020300003C0519441945108710137FE03C03FEF32
:10204000E31AF30AF594E7948D819E81861797072A
:102050005CF5A1E0B0E0BA83A983C016D1064CF1CB
:10206000D301ED91FC910484F585E02D2B813C8119
:10207000A8016D817E818A149B041CF04D815E81D4
:10208000B801C3010995E418F508F7FE0AC02D81CF
:102090003E8189819A81280F391F3E832D83E20C6E
:1020A000F31C0F5F1F4FD9CF2FEF3FEF3A832983E8
:1020B000D4CF26960FB6F894DEBF0FBECDBFDF910A
:1020C000CF911F910F91FF90EF90DF90CF90BF9035
:1020D000AF909F908F907F906F905F904F903F90C8
:1020E0002F900895089520912703260F3327331F3B
:1020F00021323105ECF420914B03FC0190E080E0AB
:10210000243069F082E00895A09127032191AC0169
:10211000495F5C4FA40FB52FB11D2C930196861714
:1021200098F380912703680F6093270380E0089558
:1021300081E0089510924B0381E080934D0310924B
:102140004C0361E082E10E94830761E083E10E9429
:102150008307E9EBF0E080818E7F808380818D7F33
:10216000808388E48093B80085E48093BC00089560
:10217000CF93DF9391E0909306038823B9F0C09149
:10218000B800D091BA008091BC008A7B8093BC00DB
:1021900060E082E10E94830760E083E10E948307A0
:1021A0000E949A10D093BA00C093B800DF91CF91EB
:1021B0000895E091840380918303E81730F4F0E000
:1021C000EF51FD4F808190E008958FEF9FEF0895CC
:1021D00090918403809183032FEF3FEF981748F489
:1021E000E92FF0E0EF51FD4F208130E09F5F9093A9
:1021F0008403C90108958091830390918403891B0E
:10220000990B0895CF92DF92EF92FF920F931F9355
:10221000CF93DF937C01CB018A01209172032223AB
:1022200089F0EB016B01C40ED51ECC15DD0569F0FC
:102230006991D701ED91FC910190F081E02DC701EA
:102240000995F3CF642F0E947310C801DF91CF91DD
:102250001F910F91FF90EF90DF90CF900895CF9353
:10226000DF931F92CDB7DEB76983209172032223DB
:10227000F9F020918103203258F021E030E0FC0198
:102280003383228390E080E00F90DF91CF91089517
:1022900080918203E82FF0E0EF53FD4F9981908306
:1022A0008F5F809382038093810381E090E0ECCF85
:1022B00061E0CE0101960E947310F7CFCF92DF92BA
:1022C000EF92FF920F931F93CF93DF93D0918103EF
:1022D00081E0D13208F09CC0C09171030E940008D7
:1022E0006B017C0180914B0381116CC082E0809373
:1022F0004B0381E080934D038FEF80934A0310924C
:102300006F03D0936E03A1ECB2E0EEE4F3E080E063
:10231000D8138DC01092700380917003CC0FC82B1E
:10232000C093700380914C03813009F084C01092F7
:102330004C030E9400086B017C0180917003809324
:10234000BB008091020390910303A0910403B0911C
:102350000503892B8A2B8B2BA1F00E94000800918A
:1023600002031091030320910403309105036C19BB
:102370007D098E099F09061717072807390708F4F2
:1023800042C08091BC0083FDD8CF85EC8093BC0017
:102390000E9400086B017C0180914B03823009F49C
:1023A0004CC080914A038F3F09F469C080914A0371
:1023B000803209F466C080914A03803309F463C017
:1023C00084E026C08091020390910303A09104034E
:1023D000B0910503892B8A2B8B2B09F483CF0E94A4
:1023E000000800910203109103032091040330912F
:1023F00005036C197D098E099F0906171707280721
:10240000390708F06FCF809101030E94B81085E072
:10241000109282031092810310927203DF91CF9188
:102420001F910F91FF90EF90DF90CF9008959D91B5
:1024300091938F5F6DCF85EEA9CF8091020390912C
:102440000303A0910403B0910503892B8A2B8B2BE6
:1024500009F4A2CF0E940008009102031091030327
:1024600020910403309105036C197D098E099F09A1
:10247000061717072807390708F08ECFC4CF80E06A
:10248000C7CF82E0C5CF83E0C3CFDF92EF92FF9248
:102490000F931F93CF93DF93EC01D62E072F142FAA
:1024A0008D8D9E8D009709F44DC029A131E03093A8
:1024B0007203209371031092820310928103DC0156
:1024C000ED91FC910190F081E02D60E00995ED2CFB
:1024D000F02E01E0DD24D39411508D8D9E8D1F3F91
:1024E00041F10032B0F00E945E118D8D9E8D29A1C8
:1024F000D092720320937103109282031092810391
:10250000DC01ED91FC910190F081E02D60E00995F6
:1025100001E08D8D9E8DF7016491DC01ED91FC91C0
:102520000190F081E02D09950F5FBFEFEB1AFB0AD8
:10253000D3CFDF91CF911F910F91FF90EF90DF905C
:102540000C945E11EDA5FEA590818BA98095892341
:102550008083E62EF72E115070F1F70184912B8DB8
:102560003C8D232B31F00E94D30AEFEFEE1AFE0AC6
:10257000F2CF28E030E040E8E9A5FAA599A9582F64
:102580005423A9F05081952B9083EBA5FCA5908155
:102590005AA9952B9083EBA5FCA550819AA99095FB
:1025A0009523908346952150310931F7DECF508134
:1025B00090959523E9CFDF91CF911F910F91FF90D7
:1025C000EF90DF9008951F93CF93DF93EC018D8DF3
:1025D0009E8D009721F1162F29A131E030937203CF
:1025E000209371031092820310928103DC01ED911C
:1025F000FC910190F081E02D60E009958D8D9E8D1C
:10260000DC01ED91FC910190F081E02D612F0995A5
:102610008D8D9E8DDF91CF911F910C945E11ADA594
:10262000BEA59C918BA9809589238C938B8D9C8DC5
:10263000892B31F0862FDF91CF911F910C94D30A13
:1026400028E030E080E8A9A5BAA599A9462F48233B
:10265000C1F04C91942B9C93ABA5BCA59C914AA92D
:10266000942B9C93ABA5BCA54C919AA990959423CF
:102670009C9386952150310931F7DF91CF911F91BD
:1026800008954C9190959423E6CF1F93CF93DF93B9
:10269000EC01162F8D8D9E8D892BB1F12DA93EA9B0
:1026A0004FA958AD60E074E284EF90E00E94B72B30
:1026B000205131094109510956954795379527957C
:1026C0002093B80066EA111167EACE010E94E31276
:1026D0008D8D9E8D892B41F129AD3AAD4BAD5CAD11
:1026E00060E074E284EF90E00E94B72B2051310942
:1026F0004109510956954795379527952093B8007C
:10270000DF91CF911F9108958B8D9C8D892B21F0A6
:102710008EAD9FAD0E94DA0AEFA5F8A990818CA931
:10272000809589238083CECFEFA5F8A980819CA9CD
:10273000892B8083E5CFCF93DF93EC018A859B853E
:10274000AC85BD858E839F83A887B9870E94570873
:102750006A837B838C839D8381E089838883DF9177
:10276000CF910895CF93DF93EC018E819F81A8854F
:10277000B9858A839B83AC83BD830E9457086A878F
:102780007B878C879D8781E089838883DF91CF91C8
:1027900008952091BF023091C0022817390771F4C3
:1027A0009091BE028091BD02981741F0E091BE0267
:1027B000F0E0E358FD4F808190E008958FEF9FEFA8
:1027C0000895EF92FF920F931F93CF93DF93DC0155
:1027D0005C96ED90FC905D97E114F10479F481E052
:1027E00090E013969C938E93129790E080E0DF9197
:1027F000CF911F910F91FF90EF9008955196ED9119
:10280000FC91529750968C915097982F90950FB7B6
:102810005E962C915E97122F127021FD6095F894B0
:102820002081112319F1282B2083E7012197F1F74B
:1028300028E0462F50E0308160FF1AC0382B3083EB
:10284000E7012197F1F7BA0175956795215089F74E
:10285000112381F08081892380830FBF5C968D9145
:102860009C910197F1F781E090E0C1CF2923DCCF63
:102870003923E5CF9081892BEFCF2091BF02309192
:10288000C0022817390771F48091BD022091BE0261
:1028900090E0805C9F4F821B910960E470E00E9491
:1028A000A32B089590E080E008952091BF0230911D
:1028B000C00228173907B9F49091BE028091BD0279
:1028C000981789F0E091BE02F0E0E358FD4F808157
:1028D0002091BE0230E02F5F3F4F2F7333272093AC
:1028E000BE0290E008958FEF9FEF08951F93CF935E
:1028F000DF93EC01162F60E0812F0E94CF078E8DB1
:1029000081FD04C061E0812F0E9483071C87812F15
:1029100090E0FC01EF54F94FE491ED87FC01E153A5
:10292000F94FE491F0E0EE0FFF1FE959FE4F85915A
:1029300094919F878E87DF91CF911F9108951F9368
:10294000CF93DF93EC01162F6E8D6695617081E059
:102950006827812F0E94830761E0812F0E94CF07A3
:10296000812F90E0FC01EF54F94FE491E88BFC01DA
:10297000E153F94FE491F0E0EE0FFF1FEB53F94FF5
:10298000859194919A8B898BDF91CF911F910895B6
:10299000E091BF02F091C002E817F90769F4A3893A
:1029A000B4899C918589809589238C931092C0026B
:1029B0001092BF0281E0089580E00895CF93DF93E5
:1029C000EC019A01AB011B8E1A8E198E188E1F8A8C
:1029D0001E8A60E079E08DE390E00E94D92BF90136
:1029E000C90103972430310510F481E090E09D8FF8
:1029F0008C8F6C85663108F053C0C9019695879518
:102A00008431910508F46FC043979F8B8E8BC90169
:102A10000597369710F481E090E0998F888FC9016F
:102A2000880F991F280F391F3695279536952795BA
:102A30002D30310508F45AC02C5031093B8F2A8FB4
:102A40009091680084E0683048F021E06E3008F42E
:102A500020E081E001C0880F2A95EAF7892B809356
:102A600068009C852DE630E0983050F02BE630E091
:102A70009E3030F02CE630E0963110F030E020E06F
:102A80003C8B2B8B292F30E0983098F581E001C0EA
:102A9000880F9A95EAF78D8B8C8D9D8D0197F1F7B4
:102AA0008A8D9B8D892BE1F08091BF029091C002AD
:102AB000C817D907A9F0009711F00E94C8148E8D8D
:102AC0008E7F8E8F1092BD021092BE02D093C002F4
:102AD000C093BF02EB89FC8980819D89892B80830B
:102AE000DF91CF91089581E090E08FCF21E030E039
:102AF000A5CF9E3040F42850310981E001C0880FF5
:102B00002A95EAF7C8CF2E503109F7CF90E080E040
:102B10000895CF93DF93EC0188819981009711F09C
:102B20000E94B62C198218821D821C821B821A8276
:102B3000DF91CF910895FC0180819181009711F080
:102B40000C94B62C0895FB0101900020E9F7319711
:102B5000AF01461B570BDC01ED91FC910280F38124
:102B6000E02D09940F931F93CF93DF93EC01FB01AA
:102B700044815581608171810E9476068C0168E6EE
:102B800071E0CE010E94A315800F911FDF91CF91BC
:102B90001F910F910895EF92FF920F931F93CF9380
:102BA000DF938B01D0E0C0E002967C01D80114963F
:102BB0008D919C911597C817D90740F5ED91FC911F
:102BC0003097F1F410927C02ECE7F2E06081C701EB
:102BD0000E94E113F80184819581C817D90728F470
:102BE0000190F081E02D309771F410927C02ECE7B7
:102BF000F2E0608183E993E00E9416072196D6CF28
:102C0000EC0FFD1FE3CFEC0FFD1FF3CF69E671E082
:102C1000C7010E94A31569E671E083E993E0DF91A3
:102C2000CF911F910F91FF90EF900C94A315CF932C
:102C3000DF93EC012296CE010E943D14892B49F0CE
:102C4000CE010E945514682F83E993E00E94160775
:102C5000F2CF69E671E083E993E0DF91CF910C94C4
:102C6000A3152F923F924F925F926F927F928F9215
:102C70009F92AF92BF92CF92DF92EF92FF920F930B
:102C80001F93CF93DF93D82FC92F8B010E942D273D
:102C900024E630E040E050E00E94B72B49019B0160
:102CA000AC0160E876E988E990E00E94932B6B0123
:102CB0007C01F80191828082ED2FFC2F2191822FDF
:102CC000022E000C990BC0970A97C0F32E3239F5EB
:102CD0001F0180E8882E86E9982E88E9A82EB12C5D
:102CE0009AE0492E512C612C712CF101C1911F01E8
:102CF0000C2E000CDD0BE097CA30D10580F4C50125
:102D0000B401A30192010E94B72B49015A01DE01CF
:102D10000E94FE2BC60ED71EE81EF91EE6CFA5E0C8
:102D2000B0E0A70196010E94632A6F5F7F4F8F4F2B
:102D30009F4F23E030E040E050E00E94B72BF801C5
:102D400022833383448355831682DF91CF911F9171
:102D50000F91FF90EF90DF90CF90BF90AF909F903A
:102D60008F907F906F905F904F903F902F9008953D
:102D70001F93CF93DF93EC0118811D3209F4219644
:102D8000CE010E942D279B01AC01A4E6B0E00E9479
:102D9000632AAB01BC01FE012991822F022E000C97
:102DA000990BC0970A97B8F32E3231F58181082E1E
:102DB000000C990BC0978A309105F0F4AAE0A89F07
:102DC0009001A99F300D1124C901330FAA0BBB0B31
:102DD000480F591F6A1F7B1F8281082E000C990B18
:102DE000C0978A30910540F4092E000CAA0BBB0B4A
:102DF000480F591F6A1F7B1F1D3239F4709560956B
:102E0000509541955F4F6F4F7F4FCB01BA01DF91D6
:102E1000CF911F9108950E94FC2D0F931F93CF9384
:102E2000DF93EC0188819981009759F02A813B81D9
:102E30002617370730F081E0DF91CF911F910F9176
:102E400008958B016F5F7F4F0E943F2D009759F0CF
:102E5000998388831B830A832C813D81232B59F717
:102E6000FC011082E8CF80E0E7CFEF92FF920F9352
:102E70001F93CF93DF936115710541F480E0DF91DB
:102E8000CF911F910F91FF90EF900895411551053B
:102E9000B1F07B01EC010C811D81040F151FB801FD
:102EA0000E940D17882351F3288139818C819D81DF
:102EB000B701820F931F0E941A2E1D830C8381E09D
:102EC000DECFCF93DF93EC01FB0101900020E9F707
:102ED0003197AF01461B570B0E943517811103C074
:102EE000CE010E948915CE01DF91CF910895CF9335
:102EF000DF93EC01FB0144815581608171810E9467
:102F00003517811103C0CE010E948915CE01DF91D2
:102F1000CF910895EF92FF920F931F93CF93DF937A
:102F2000EC017B018A01BA010E940D1781110BC0CF
:102F3000CE010E948915CE01DF91CF911F910F9193
:102F4000FF90EF9008951D830C83B70188819981CC
:102F50000E941A2EF0CFFB01DC0111961C921E92EA
:102F600013961C921E92129715961C921E921497FD
:102F70008617970749F0608171816115710521F00D
:102F8000448155810C948A170895FC0111821082A6
:102F90001382128215821482FB0101900020E9F74E
:102FA0003197AF01461B570B0C948A178F929F9253
:102FB000AF92BF92CF92DF92EF92FF920F931F9347
:102FC000CF93DF93CDB7DEB72C970FB6F894DEBF63
:102FD0000FBECDBF7C014B015A0169016BE671E068
:102FE000CE0101960E94C517BE016F5F7F4FC701DA
:102FF0000E94CB15CE0101960E949B158CED95E0A9
:103000000E946308C7010E94171662E771E0CE01B3
:1030100001960E94C517BE016F5F7F4FC7010E94D6
:10302000CB15CE0101960E949B158CED95E00E9478
:103030006308C7010E94171668E971E0CE01019686
:103040000E94C517BE016F5F7F4FC7010E94CB155D
:10305000CE0101960E949B158CED95E00E946308BD
:10306000C7010E94171665EA71E0CE0101960E9421
:10307000C517BE016F5F7F4FC7010E94CB15CE0100
:1030800001960E949B158CED95E00E946308C70194
:103090000E94171661EB71E0CE0101960E94C517E0
:1030A000B401CE0101960E94771765EC71E00E9491
:1030B0006117B5010E9477176AEC71E00E946117F1
:1030C000B6010E94771760ED71E00E946117B801A8
:1030D0000E94771763EC71E00E946117BC01CE017A
:1030E00007960E94AB17BE01695F7F4FC7010E9420
:1030F000CB15CE0107960E949B15CE0101960E942A
:103100009B1588EB9BE00E946308C7010E9417167D
:1031100066ED71E0CE0101960E94C517BE016F5F9A
:103120007F4FC7010E94CB15CE0101960E949B15CF
:103130008CED95E00E946308C7010E94171666EEA9
:1031400071E0CE0101960E94C517BE016F5F7F4FEF
:10315000C7010E94CB15CE0101960E949B1588E8FD
:1031600093E10E946308C7010E94171662EF71E0A5
:10317000CE0101960E94C517BE016F5F7F4FC70148
:103180000E94CB15CE0101960E949B158CED95E017
:103190000E946308C7010E9417166EEF71E0CE010E
:1031A00001960E94C517BE016F5F7F4FC7010E9445
:1031B000CB15CE0101960E949B158CED95E00E94E7
:1031C0006308C7010E9417162C960FB6F894DEBF4D
:1031D0000FBECDBFDF91CF911F910F91FF90EF9068
:1031E000DF90CF90BF90AF909F908F900895EF9217
:1031F000FF920F931F93CF93DF93CDB7DEB7A197C5
:103200000FB6F894DEBF0FBECDBF7C01CB01BA0173
:10321000F70111821082138212821582148242E019
:10322000420F8E010F5F1F4F0E940F270097C9F0BA
:10323000FC0101900020E9F73197AF01481B590BC1
:10324000BC01C7010E948A17A1960FB6F894DEBF91
:103250000FBECDBFDF91CF911F910F91FF90EF90E7
:103260000895C7010E948915EFCFFC0186819781DF
:103270009C01295F3F4F37FF02C0295F3F4F83E02A
:10328000359527958A95E1F784819581289FA0013E
:10329000299F500D389F500D112470E060E0878DFC
:1032A00090A10C940A2EAF92BF92CF92DF92EF9230
:1032B000FF920F931F93CF93DF93EC015B016A01A1
:1032C00079010E94351981E08C8B8D8B81E090E033
:1032D0009B8B8A8B998B888B1D861C861F861E86EE
:1032E000B501CE010E94B215B601CE010E94B21501
:1032F000B701CE010E94B215B801CE010E94B215ED
:103300008D8D9E8D892B09F47FC02DA93EA94FA9D3
:1033100058AD60E074E284EF90E00E94B72B20513A
:1033200031094109510956954795379527952093BD
:10333000B80045E062E671E0CE010E9445126C8162
:103340006150CE010E94E3122E813F81C901079690
:1033500097FD079623E0959587952A95E1F72C81AF
:103360003D81829F7001839FF00C929FF00C11248D
:103370000F8D18A18D8D9E8DE00EF11E009709F422
:1033800079C029A131E03093720320937103109228
:10339000820310928103DC01ED91FC910190F08198
:1033A000E02D60E40995DD24D394CC24C3948D8D65
:1033B0009E8DE016F106C1F1BFE1BD15B8F40E9483
:1033C0005E118D8D9E8D29A1C09272032093710391
:1033D0001092820310928103DC01ED91FC91019027
:1033E000F081E02D60E40995DD24D3948D8D9E8DD0
:1033F000F80161918F01DC01ED91FC910190F08168
:10340000E02D0995D394D3CF8B8D9C8D892B21F002
:103410008EAD9FAD0E94DA0AEFA5F8A990818CA924
:1034200080958923808385CF0E945E118D8D9E8D2E
:10343000892B09F454C029AD3AAD4BAD5CAD60E0C9
:1034400074E284EF90E00E94B72B205131094109CA
:10345000510956954795379527952093B800DF91E8
:10346000CF911F910F91FF90EF90DF90CF90BF9081
:10347000AF900895EDA5FEA580819BA9892B80833F
:10348000E016F10699F2F80181918F012B8D3C8DA8
:10349000232B19F00E94D30AF3CF28E030E040E854
:1034A000E9A5FAA599A9582F5423A9F05081952B85
:1034B0009083EBA5FCA590815AA9952B9083EBA551
:1034C000FCA550819AA9909595239083469521500B
:1034D000310931F7D5CF508190959523E9CFEFA5EC
:1034E000F8A980819CA9892B8083B9CF85ED809331
:1034F000BC008091020390910303A0910403B0915A
:1035000005030796A11DB11D23E0B695A7959795D4
:1035100087952A95D1F72091BC0024FD03C0109215
:103520004B030895409102035091030360910403FB
:1035300070910503452B462B472B69F30097A10596
:10354000B10541F025E32A95F1F700000197A109A3
:10355000B109E1CF809101030C94B8101F920F9232
:103560000FB60F9211242F933F934F935F936F9356
:103570007F938F939F93AF93BF93EF93FF9383E9D1
:1035800093E00E94F406FF91EF91BF91AF919F915C
:103590008F917F916F915F914F913F912F910F90FC
:1035A0000FBE0F901F9018951F920F920FB60F929B
:1035B00011242F938F939F93EF93FF93E091A30395
:1035C000F091A4038081E091A903F091AA0382FD08
:1035D0001BC090818091AC038F5F8F732091AD03EE
:1035E000821741F0E091AC03F0E0ED56FC4F958F6F
:1035F0008093AC03FF91EF919F918F912F910F904A
:103600000FBE0F901F9018958081F4CF1F920F92DC
:103610000FB60F9211242F933F938F939F93AF93E5
:10362000BF938091740390917503A0917603B0913C
:1036300077033091730323E0230F2D3758F501965C
:10364000A11DB11D209373038093740390937503A0
:10365000A0937603B09377038091780390917903D8
:10366000A0917A03B0917B030196A11DB11D8093B7
:10367000780390937903A0937A03B0937B03BF916F
:10368000AF919F918F913F912F910F900FBE0F900F
:103690001F90189526E8230F0296A11DB11DD2CFC9
:1036A0001F920F920FB60F9211242F933F934F93B7
:1036B0005F936F937F938F939F93AF93BF93EF939A
:1036C000FF938091B900887F803609F44AC0F0F5F5
:1036D000883209F4A7C018F5803109F49BC0B8F40A
:1036E000882309F4F9C0883009F494C0FF91EF9160
:1036F000BF91AF919F918F917F916F915F914F910A
:103700003F912F910F900FBE0F901F901895883109
:1037100009F488C0803251F780934A0314C0803482
:1037200009F49DC040F48033B9F38833F9F68093EF
:103730004A0385ECB0C0803509F485C0883509F4AA
:1037400096C0883499F60E94761AD0CF883909F449
:103750008CC038F5883729F050F4883611F080375E
:1037600029F683E080934B031092490357C08838B1
:1037700009F47BC0803919F0803809F0B7CF809107
:103780004903803208F071C0E091490381E08E0F57
:10379000809349038091BB00F0E0E75DFC4F80839C
:1037A0003DC0803B39F0E0F4803A09F479C0883AB2
:1037B00009F09CCF84E080934B0310922803109271
:1037C0002703E0917F03F0918003099580912703FF
:1037D00081110FC081E0809327031092070309C075
:1037E000803C09F4A6CF883C09F4A3CF883B09F0BC
:1037F0007DCFE091280381E08E0F80932803F0E0D5
:10380000E95FFC4F80818093BB00909128038091F9
:10381000270329C0809170038093BB0085EC8093BF
:10382000BC0064CF90916F0380916E03981758F598
:10383000E0916F0381E08E0F80936F03F0E0E25B15
:10384000FC4F8081E9CFE0916F0381E08E0F809380
:103850006F038091BB00F0E0E25BFC4F80839091AE
:103860006F0380916E039817C8F285E8D8CFE09176
:103870006F0381E08E0F80936F038091BB00F0E0B7
:10388000E25BFC4F808380914D0381115CCF81E02E
:1038900080934C0384EA8093BC0010924B0326CFA4
:1038A00085EC8093BC0010924B03809149038032D9
:1038B00030F4E0914903F0E0E75DFC4F1082609145
:1038C000490370E0E0917D03F0917E0389E293E08B
:1038D0000995109249030ACF10924A0334CF1F92E0
:1038E0000F920FB60F9211242F933F934F935F9334
:1038F0006F937F938F939F93AF93BF93EF93FF93B8
:10390000E091BF02F091C002309749F0A685B785DB
:103910008585968D91FF14C09C918923A1F4FF9118
:10392000EF91BF91AF919F918F917F916F915F9137
:103930004F913F912F910F900FBE0F901F901895B0
:103940009C91892361F7A389B4899C91858980958D
:1039500089238C93868997890197F1F7608D718D02
:10396000A685B785558538E020E0CB010197F1F7B2
:10397000822F90E095958795282F4C91452309F04B
:103980002068315091F7868D81FD20958091BD0290
:1039900090E001968F7399273091BE02381799F005
:1039A000A091BD02B0E0A358BD4F2C938093BD02FF
:1039B000828D938D0197F1F7A389B4898C919589B4
:1039C000892B8C93ACCF868D8160868FF1CFE3E914
:1039D000F3E01382128288EE93E0A0E0B0E08483EB
:1039E0009583A683B78328E431E03183208325ECD7
:1039F00030E03587248724EC30E03787268720ECB9
:103A000030E0318B208B21EC30E0338B228B22ECA9
:103A100030E0358B248B26EC30E0378B268B118EF3
:103A2000128E138E148EE0E3F4E0138212828483EC
:103A30009583A683B7838AE591E0918380836BE0C9
:103A400072E082E494E00E94C51765E172E08CE3C5
:103A500094E00C94C517CF93DF93CDB7DEB7CC5865
:103A6000D1090FB6F894DEBF0FBECDBF789484B5F0
:103A7000826084BD84B5816084BD85B5826085BD6A
:103A800085B5816085BD80916E00816080936E00F8
:103A900010928100809181008260809381008091EA
:103AA000810081608093810080918000816080939B
:103AB00080008091B10084608093B1008091B0005B
:103AC00081608093B00080917A00846080937A0056
:103AD00080917A00826080937A0080917A00816080
:103AE00080937A0080917A00806880937A001092A7
:103AF000C100E091A303F091A403A2E0FA2EF082AA
:103B0000E0919F03F091A0031082E091A103F09156
:103B1000A2038FEC80831092AB03E091A703F09196
:103B2000A80386E08083E091A503F091A60380813D
:103B300080618083E091A503F091A6038081886075
:103B40008083E091A503F091A60380818068808343
:103B5000E091A503F091A60380818F7D80836FE3C0
:103B600072E083E993E00E94A31568E671E083E9BF
:103B700093E00E94A31561E088E00E94CF0761E016
:103B800088E00E9483078CEC90E00E941A2C8C0144
:103B9000DC0113961C921E92129788EE93E0A0E02F
:103BA000B0E0F80184839583A683B78386E391E030
:103BB00091838083178A168A118E108E138E128E2F
:103BC000158E148E868D8E7F8D7F868F64E0C80162
:103BD0000E949F1463E0C8010E947614D8015F968A
:103BE0001C925F9790961C92909792961C921E92B0
:103BF0009197F80113A214A215A216A217A211A65A
:103C000010A69A961D921D921D921C929D979E96AB
:103C10001C929E97D0961C921E929F9711AA12AA50
:103C200013AA14AA15AA17AA16AAD8961D921D920D
:103C30001D921C92DB97DC961C92EF5BFF4FE59682
:103C4000FFAFEEAFE59710821182128213821482C9
:103C500015823E96E796FFAFEEAFE797108211828E
:103C600012821382148215823E96E996FFAFEEAF60
:103C7000E997108211821682178210861186180128
:103C8000BBE62B0E311CF1011082118216821782C5
:103C9000108611865801B9E7AB0EB11CF5011082F0
:103CA000118216821782108611866801B7E8CB0E42
:103CB000D11CF6011082118216821782108611869D
:103CC0003E96E396FFAFEEAFE39710821182168225
:103CD0001782108611863E96108231961082709659
:103CE000F0823196EF96FFAFEEAFEF97108298011A
:103CF0002A543F4FCF57DF4F39832883C158D040D4
:103D0000D9011C92329610823196118210822801BC
:103D1000BAEB4B0E511CF2011182108232961082C6
:103D200011821282138234961082118212821382BF
:103D3000349610821182128213823496108211827C
:103D4000128213827801F5EAEF0EF11CD7011C9262
:103D500040E855E260E070E0C8010E94DE140E9475
:103D600057089B01AC0128573C4E4F4F5F4FC75738
:103D7000DF4F288339834A835B83C958D040EF964D
:103D80004EAD5FADEF97ED965FAF4EAFED97C95774
:103D9000DF4FF982E882C758D040C80184549F4F52
:103DA000CB57DF4F99838883C558D0400E9457086E
:103DB000C757DF4F288139814A815B81C958D0407C
:103DC000621773078407950708F00AC3A8014954CE
:103DD0005F4FE1965FAF4EAFE197C8018C559F4FA3
:103DE000EB969FAF8EAFEB97D801AD55BF4FAF9617
:103DF000BFAFAEAFAF97F8017F96C158DF4FF983E1
:103E0000E883CF57D040F096CD57DF4FF983E88352
:103E1000C358D040C8010E943D141816190634F644
:103E2000C8010E945514782ECB57DF4FE881F981E5
:103E3000C558D04080819181A281B3810196A11D96
:103E4000B11D80839183A283B383F4E27F1609F4CA
:103E50008BC2D801AA54BF4FF7150CF4DEC02AE07C
:103E6000721619F03DE07312A0C2EC91EF3008F029
:103E70004DC1E00FF12FF11DEB55FF4F1082EB9676
:103E8000AEADBFADEB976C90662009F441C1C95748
:103E9000DF4FE881F981C758D0402081822F022E60
:103EA000000C990B3FEB320F363008F0C5C0C797B6
:103EB0008295807FF801EA55FF4F9081292F092EC6
:103EC000000C330B4FEB490F463008F0BDC02753B1
:103ED0003109820FAF96AEADBFADAF979C91F8019F
:103EE000891307C1E853FF4F80819181A281B3817B
:103EF0000196A11DB11D80839183A283B383E196B6
:103F0000EEADFFADE1978081882371F0F801E054B8
:103F1000FF4F80819181A281B3810196A11DB11DC6
:103F200080839183A283B383F801EC54FF4F908088
:103F3000992009F492C0F1E09F1241C0C158DF4FAF
:103F400088819981CF57D04082960E94B213CD5775
:103F5000DF4F88819981C358D0400E94B213E19607
:103F6000AEADBFADE1978C91882349F187E0F801B0
:103F7000BF96D801919601900D928A95E1F787E05E
:103F8000F801F696D801989601900D928A95E1F77E
:103F90000E945708F801FD966083718382839383A2
:103FA000F80190A2978EC158DF4F88819981CF5731
:103FB000D040CE960E949B13C1010E949B13F20138
:103FC000808091808114910409F480C6D201ED9122
:103FD000FC9166A177A1F40186A197A10E94112E00
:103FE000892B09F073C6B401C40140960E941A2EB1
:103FF0000E945708D40190966D937D938D939C9366
:104000009397E1E09596EC939597F1E09496FC9365
:1040100094979A968D909C90D5CF4AE2741609F4A5
:1040200024CF5CE27512C1C1AF96EEADFFADAF9784
:1040300080818725808319CF2156263018F4875533
:10404000910936CFC09734CF9156963018F4275542
:1040500031093FCF205331093CCFCD57DF4F888105
:104060009981C358D0400E94B213E196AEADBFAD66
:10407000E1978C91882309F187E0F801BF96D80178
:10408000919601900D928A95E1F787E0F801F696F6
:10409000D801989601900D928A95E1F70E945708F1
:1040A000F801FD96608371838283938381E0F80138
:1040B00080A3878FC5010E949B13F601828593859B
:1040C000A485B58586839783A087B1870E9457080A
:1040D000D60112966D937D938D939C93159781E0F5
:1040E00011968C9311978C93E3968EAD9FADE397C9
:1040F00064CFEC53FF4F80819181A281B3810196FF
:10410000A11DB11D80839183A283B383612CDEC581
:10411000ED96AEADBFADED979C91911147C065E4B2
:1041200072E0C7010E94112E892B39F06BE472E016
:10413000C7010E94112E892B31F481E0F801EC5463
:10414000FF4F808314C061E572E0C7010E94112E09
:10415000F801EC54FF4F4F01892B39F067E572E00D
:10416000C7010E94112E892BF1F4D4011C92F80191
:10417000E854FF4F80819181D2018D939C93F2018D
:10418000808091808114910409F4C0CFB701D401DB
:1041900096968D919C910E94112E97FF91C5F401E6
:1041A00082A593A5E9CF82E0F401CBCFF801EC54CE
:1041B000FF4FE081E23009F460C0C957DF4FA881AA
:1041C000B981C758D0408C91882309F456C0B0E219
:1041D000EB9FF0011124E92B3197E932F10508F04A
:1041E0004CC0EB50FF4D0C94F82B1E213021372191
:1041F0006D2171219821A221A721AF213D213D21CF
:104200003D213D213D213D213D213D213D213D21BE
:104210003D213D213D213D213D213D213D213D21AE
:104220003D213D213D213D213D211E212A213021DD
:1042300037216D217121792185219021C7010E94AB
:10424000B816E796EEADFFADE79766837783808774
:10425000918713C091E0813409F46EC090E06CC086
:10426000B801615D7F4FC7010E94311606C091E021
:10427000833509F090E0F80195ABD2018D909C90C8
:10428000EF96EEADFFADEF9760808114910409F4D5
:104290003DCFD201ED91FC9166A177A1F40186A1F9
:1042A00097A10E94112E892B09F030CFD401989646
:1042B0002D913C91862D90E0821793070CF426CF28
:1042C0002817390731F440E150E0B701C4010E94DA
:1042D000212EF40182A493A4D3CFB8016A5C7F4F4E
:1042E000C2CF91E0873509F090E0D801DC969C932D
:1042F000C4CFC7010E94B816E996EEADFFADE997AD
:104300006287738784879587B8CFC7010E94B816E4
:10431000D1011A966D937D938D939C931D97ADCF8C
:10432000C7010E942D27E596EEADFFADE5978DCF35
:1043300091E081330CF492CFE196AEADBFADE19741
:104340009C939BCFC7010E942D27F601D9CFC701AF
:104350000E94B816E396AEADBFADE397DACFC701C2
:104360000E94B816F501CCCFCF57DF4FA881B98195
:10437000C158D0401C92ED96EEADFFADED97108286
:10438000AF96AEADBFADAF971C9282E0F801EC5492
:10439000FF4F8083EB96EEADFFADEB971082E19679
:1043A000AEADBFADE1971C9235CDEC91EE3048F447
:1043B00081E08E0F8C93E00FF12FF11DEB55FF4F35
:1043C0007082EB96EEADFFADEB978081811122CD2F
:1043D000AF96AEADBFADAF978C9178267C921ACDDB
:1043E0000115110559F086E391E0F801918380836E
:1043F000C8010E94C814C8010E94B62C60E088E081
:104400000E94830740918503509186036091870342
:104410007091880326E0CE018B960E94F7186DE517
:1044200072E0CE01C1960E94C517BE01655D7F4F47
:10443000CE01C1960E947717BC01CE0185960E94DD
:10444000AB1740918F03509190036091910370914D
:10445000920326E0CE01CD960E94F71863E672E043
:10446000CE018D5B9F4F0E94C517BE01635C7F4FDD
:10447000CE018D5B9F4F0E947717BC01CE01C7967E
:104480000E94AB1740918B0350918C0360918D0378
:1044900070918E0326E0CE01815B9F4F0E94F7183A
:1044A00069E672E0CE018B5A9F4F0E94C517BE018C
:1044B000615B7F4FCE018B5A9F4F0E947717BC01E3
:1044C000CE01875B9F4F0E94AB178091890390912B
:1044D0008A03A3961FAE1EAEA397A5961FAE1EAE6F
:1044E000A597A7961FAE1EAEA7974AE08E010F5F55
:1044F0001F4FB8010E945427F80101900020E9F7EE
:104500003197AF01401B510BB801CE018F599F4F1E
:104510000E948A176FE672E0CE0189599F4F0E9470
:10452000C517BE016F597F4FCE0189599F4F0E9419
:104530007717BC01CE01855A9F4F0E94AB1780E4CC
:1045400090E00E941A2C6C01DC0113961C921E92C2
:10455000129720E830E015963C932E93149780E252
:1045600090E017969C938E93169719963C932E93F2
:1045700018971B969C938E931A9756961C92569753
:104580001D961C921E921C971F961C921E921E979F
:1045900081E055968C93559754968C9354972FEFB2
:1045A0003FEF53963C932E93529751963C932E9304
:1045B000509757968C93579758961C9258975A969F
:1045C0001C921E9259978AE091E011969C938E93CB
:1045D0005C961C921E925B9780E394E05E969C939F
:1045E0008E935D978FEF94968C93949795968C937A
:1045F000959796968C93969797968C93979798966F
:104600008C93989780E5DE968C93DE97DF961C92CC
:1046100080E092E00E941A2CF60190A3878F892BEC
:1046200009F404C1C6010E943519D60116968D9170
:104630009C91179714966D917C91AC0181970CF425
:1046400031C24054510957FF02C04F5F5F4F55952B
:1046500047956255710977FF02C06F5F7F4F75956F
:104660006795E0E4EE2EF12C02E510E023EC38E053
:10467000C6010E94EE0582E0F60182A3858D968D2B
:10468000892B09F427C28CE381A310928403109232
:10469000830310928203109281030E949A1084E790
:1046A00096E09093800380937F0385E796E0909354
:1046B0007E0380937D03D60198968C9187FD1FC061
:1046C00061E00E94CF0761E0F60180A50E948307A8
:1046D00061E070E080E090E00E94250860E0D60193
:1046E00098968C910E9483076AE070E080E090E0E9
:1046F0000E94250861E0F60180A50E948307D6018B
:104700005D968D919C915E97892B09F4A6C2D596F2
:104710002D913D914D915C91D89760E074E284EFCA
:1047200090E00E94B72B205131094109510956955B
:104730004795379527952093B80044E06DEA76E0D9
:10474000C6010E944512F60166816150C6010E94B1
:10475000E31244E069EA76E0C6010E944512D60100
:1047600092968C9160E1813009F064E1C6010E946B
:10477000E31244E065EA76E0C6010E9445128FE844
:10478000F60185AF848195818038910509F07CC25E
:10479000868197818034910509F084C282A181309D
:1047A00009F070C28FE9D601DD968C9312E16AEDB3
:1047B000C6010E94E312612FC6010E94E31261E864
:1047C000C6010E94E312F60165ADC6010E94E31224
:1047D00069EDC6010E94E312D60192968C9162E2C5
:1047E000813009F061EFC6010E94E31246E06FE9F3
:1047F00076E0C6010E944512F601858D968D892BC3
:1048000009F454C221AD32AD43AD54AD60E074E261
:1048100084EF90E00E94B72B2051310941095109E2
:1048200056954795379527952093B80080ED97E0EA
:104830000E946308C6010E943519BE016B5D7F4F5F
:10484000CE0101960E94AB17BE01695C7F4FCE017D
:1048500043960E94AB17BE01675B7F4FCE0149961E
:104860000E94AB17BE01655A7F4FCE014F960E9442
:10487000AB178E010F5F1F4F9E012D5E3F4FAE01A4
:10488000475E5F4FBE01615E7F4FC6010E945319B4
:10489000CE014F960E949B15CE0149960E949B1512
:1048A000CE0143960E949B15C8010E949B15C1141E
:1048B000D10471F08AE091E0F60191838083878DC5
:1048C00090A1009711F00E94B62CC6010E94B62C50
:1048D000CE01855A9F4F0E949B15CE0189599F4F4B
:1048E0000E949B15CE018F599F4F0E949B15CE01B0
:1048F000875B9F4F0E949B15CE018B5A9F4F0E9452
:104900009B15CE01815B9F4F0E949B15CE01C796E0
:104910000E949B15CE018D5B9F4F0E949B15CE017F
:10492000CD960E949B15CE0185960E949B15CE01C7
:10493000C1960E949B15CE018B960E949B1561E04B
:1049400087E00E94CF0761E087E00E94830781E251
:1049500090E00E941A2C7C016C01F2E0CF0ED11C79
:10496000DC0115961C921E92149788EE93E0A0E04D
:10497000B0E0F70186839783A087B18786E3A82EEE
:1049800081E0B82EB382A282118E108E138E128E09
:10499000158E148E178E168E80A18E7F8D7F80A32C
:1049A0006BE0C6010E949F146AE0C6010E94761463
:1049B00082E090E0D7018D939C9340E855E260E05F
:1049C00070E0C6010E94DE1488EB9BE00E94630841
:1049D00040918F03509190036091910370919203E5
:1049E00028E0CE0101960E94F71840918B03509168
:1049F0008C0360918D0370918E0328E0CE01439665
:104A00000E94F71862E474E0CE0149960E94AB1749
:104A10006CE374E0CE014F960E94AB178E010F5FDE
:104A20001F4F9E012D5E3F4FAE01475E5F4FBE019F
:104A3000615E7F4FC7010E94D617CE014F960E943C
:104A40009B15CE0149960E949B15CE0143960E946C
:104A50009B15C8010E949B15E114F10449F0F70170
:104A6000B382A282C6010E94C814C7010E94B62C5C
:104A700060E087E00E9483070FB6F894A8958091C4
:104A80006000886180936000109260000FBE88E132
:104A900098E00FB6F894A895809360000FBE9093AD
:104AA0006000FFCF4052510957FF02C04F5F5F4F78
:104AB000559547956357710977FF02C06F5F7F4F28
:104AC0007595679590E2E92EF12C03E710E023EE4F
:104AD00036E0CECD61E086A10E94CF0761E0F6010D
:104AE00087A10E94CF07D60196968C919697082EA3
:104AF000000C990BFC01E153F94FE491F0E0EE0F4B
:104B0000FF1FEB53F94F25913491F60136A725A7E6
:104B1000FC01EF54F94FE491D396EC93D397979619
:104B20008C91082E000C990BFC01E153F94FE49194
:104B3000F0E0EE0FFF1FEB53F94FA591B491F60192
:104B4000B0ABA7A7FC01EF54F94F9491F60194ABD9
:104B50008C91E92FE82BEC93D6015B968D919C917B
:104B6000892B09F434C01FB7F89480917C0381111C
:104B700027C0E9EDF6E08491EBEBF6E09491E82FA5
:104B8000F0E0EE0FFF1FEB56F94FA591B491EC91B9
:104B9000E92321F461E08AE00E94830761E08AE072
:104BA0000E94CF078CB580618CBD8CB580648CBDB4
:104BB00061E08DE00E94CF0761E08BE00E94CF07AB
:104BC00080917C038F5F80937C031FBF74CD61E075
:104BD000F60184A10E94CF0761E0D60195968C91E1
:104BE0000E94CF07F60184A1082E000C990BFC014E
:104BF000E153F94FE491F0E0EE0FFF1FEB53F94F53
:104C000025913491D6019A963C932E939997FC0165
:104C1000EF54F94FE491D196EC93D19795968C91FE
:104C2000082E000C990BFC01E153F94FE491F0E0E0
:104C3000EE0FFF1FEB53F94FA591B491F601B4A706
:104C4000A3A7FC01EF54F94F9491F60192AB8C911C
:104C5000E92FE095E823EC932ECDF601838D948D1A
:104C6000892B21F086AD97AD0E94DA0AD6019F9676
:104C7000ED91FC91D0979081D4968C918095892369
:104C800080835BCD8FEC8FCD8036910559F4868182
:104C90009781409739F482A1813031F480E1D601C7
:104CA000DD968C9312E083CD8FEAF9CFD60107A46D
:104CB000F0A9E02D8081D4969C91892B8083B6CD7C
:104CC000892B09F423CAF20111821082ED96AEAD50
:104CD000BFADED978C918F5F8C93F801EA54FF4F35
:104CE000108281E0BAE27B1280E0EB96EEADFFAD80
:104CF000EB978083662009F48DC8F60180818823B4
:104D000011F40C94ED1ED8015F968C91882311F458
:104D10000C94ED1EF5018081882311F40C94ED1E96
:104D2000D60111961C92119716968D919C91909395
:104D30008A038093890311826681778180859185BA
:104D40000E94D72920E030E048EC52E40E94212B59
:104D50006093850370938603809387039093880301
:104D6000F80110A263A174A185A196A10E94D52982
:104D700028E23BE64EE65EE40E94212B3B014C011B
:104D8000D80191966D917C9190E080E00E94D529A8
:104D90009B01AC01C401B3010E94B52AF80127A10F
:104DA0002111905860938B0370938C0380938D0333
:104DB00090938E03D8019A966D917D918D919C91DF
:104DC0009D970E94D52928E23BE64EE65EE40E94CC
:104DD000212B3B014C01F80160A571A590E080E01A
:104DE0000E94D5299B01AC01C401B3010E94B52AE0
:104DF000D8019E962C912111905860938F03709347
:104E0000900380939103909392030C94CD1E8CE3B6
:104E100094E00E949B1582E494E00C949B15EF9221
:104E20000F931F93CF93DF93E80134E047FD34E104
:104E3000042E000C550B57FF03C0519541955109A5
:104E4000E32E022F242FAE010E948E27CE01DF9188
:104E5000CF911F910F91EF9008951F93FC01992717
:104E60008827BC01E89411911032E9F3193010F051
:104E70001E30C8F31B3251F01D3249F4689406C04D
:104E80000E945F27610F711D811D911D11911053AB
:104E90001A30B0F33EF490958095709561957F4FF0
:104EA0008F4F9F4F1F910895BB274A3031F49923AC
:104EB00022F4BDE2909581959F4F0C947527592F50
:104EC000482F372F262F660F771F881F991F660FD1
:104ED000771F881F991F620F731F841F951F660F0E
:104EE000771F881F991F0895BB27FB015527AA2705
:104EF000880F991FAA1FA41710F0A41B8395505167
:104F0000B9F7A05DAA3308F0A95DA193009779F7DE
:104F1000B111B1931192CB010C94C529A9E0B0E075
:104F2000E4E9F7E20C94742A6A01F22EB02E102FF5
:104F3000FBE3AF2EA01608F41BE31F5F012F27E051
:104F4000AE014F5F5F4F0E94ED28BC018981982F11
:104F50009970913009F43FC09BE2E1FC04C09E2DA2
:104F60009170E0FC3AC05E2D5071E82FE87083FF2D
:104F700046C084E0911101C083E0EF2DE81B8F153E
:104F800008F0E0E0D6018E2F20E2552351F199235D
:104F900029F0D6019C93C60101966C0196012D5F04
:104FA0003F4FE2FE24C08EE4D6018C9391E411962B
:104FB0009C93119712968C93D9018E2F90E28111B8
:104FC0001BC0E20FF32FF11D10828EEF9FEF299689
:104FD000ECE00C94902A9DE2C6CF90E2C4CF2D93D2
:104FE00081508111FCCFCE0ED11CE0E0D0CF8EE6F7
:104FF000D6018C9391E6DBCF9D938150E0CF482F73
:10500000447082FF3DC084E0911101C083E08F15A0
:1050100010F4EF2DE81BD6018E2F20E2552309F165
:10502000992329F0D6019C93C60101966C01960143
:105030002D5F3F4FE2FE1BC089E4D6018C938EE4C6
:1050400011968C93119786E412968C93D9018E2F2A
:1050500090E2882309F4B5CF9D938150FACF2D9328
:1050600081508111FCCFCE0ED11CE0E0D9CF89E672
:10507000D6018C938EE611968C93119786E6E4CF39
:105080009B0177FF02C030E020E0A1E0B0E0911189
:1050900002C0B0E0A0E0F9013196AE0FBF1F8B2C2B
:1050A000912CBB2009F461C05401EFEFAE1ABE0A87
:1050B000AA0DBB1DFA161B0619F014F04F2D4A1B42
:1050C000511188C0E3FC59C07601A42FB0E2A111B0
:1050D0004FC0C40ED11C992309F45BC040E0D60137
:1050E0001196F60190836D01552309F448C0012FF4
:1050F000060F9A81582F507184FF03C0913309F431
:10510000015010160CF047C0093008F008E0EEE23C
:10511000FE2E5B01A01AB10885019194819491083B
:105120002F3F320729F4D601FC92F60131966F0128
:105130006217730794F1021713077CF5DB01A21BBA
:10514000B30BAA24A394B12CAC0EBD1EAA0DBB1D9B
:1051500011968C9121503109D601119628153905E7
:10516000F4F0F60180836D01DBCFB12CA12CA0CF30
:10517000F701B1937F01A150AACF9111B0CFD60111
:10518000942F50E302C05D9391509111FCCFC40E57
:10519000D11C40E0ACCF01E0BACF80E3DBCF621797
:1051A000730731F4963388F4953311F4552369F07D
:1051B000F6018083FD01842F90E2811108C0A40FC5
:1051C000B11D1C9290E080E002CF81E3F1CF91937A
:1051D0008150F3CF911183CF8ACF283008F027E098
:1051E0003327DA01990F311D87FD91600096610523
:1051F000710539F432602E5F3D9330E32A95E1F773
:1052000008959F3F30F080387105610509F03C5FDB
:105210003C5F3D93913008F08068911DDF93CF9300
:105220001F930F93FF92EF92192F987F9695E92F76
:1052300096959695E90FFF27EE53FF4F9927332751
:10524000EE24FF24A701E70105900894079428F4B1
:10525000360FE71EF81E491F511D660F771F881F66
:10526000991F0694A1F70590079428F4E70EF81EFD
:10527000491F561FC11D770F881F991F661F06946F
:10528000A1F70590079428F4F80E491F561FC71F71
:10529000D11D880F991F661F771F0694A1F70590EF
:1052A000079420F4490F561FC71FD81F990F661F78
:1052B000771F881F0694A9F784911095177041F005
:1052C000D695C79557954795F794E7941A95C1F7E2
:1052D000E8E6F0E068941590159135916591959107
:1052E00005907FE27395E118F10A430B560BC90B49
:1052F000D009C0F7E10CF11E431F561FC91FD01D76
:105300007EF4703311F48A95E6CFE894015030F0C2
:10531000080F0AF40027021708F4202F2395022F04
:105320007A3328F079E37D932A95E9F710C07D93CD
:105330002A9589F60694979567953795179517944A
:10534000E118F10A430B560BC90BD00998F02395CD
:105350007E9173957A3308F070E37C932013B8F74D
:105360007E9170617D9330F0839571E37D9370E35E
:105370002A95E1F71124EF90FF900F911F91CF91A3
:10538000DF91992787FD90950895DC01FC01672F37
:1053900071917723E1F7329704C07C916D9370830C
:1053A0006291AE17BF07C8F30895E89409C097FB50
:1053B0003EF490958095709561957F4F8F4F9F4FEC
:1053C0009923A9F0F92F96E9BB279395F695879530
:1053D00077956795B795F111F8CFFAF4BB0F11F4F3
:1053E00060FF1BC06F5F7F4F8F4F9F4F16C088239A
:1053F00011F096E911C0772321F09EE8872F762FD0
:1054000005C0662371F096E8862F70E060E02AF010
:105410009A95660F771F881FDAF7880F96958795FC
:1054200097F9089597F99F6780E870E060E0089524
:105430009FEF80EC089500240A94161617061806AC
:105440000906089500240A94121613061406050688
:105450000895092E0394000C11F4882352F0BB0F19
:1054600040F4BF2B11F460FF04C06F5F7F4F8F4F7C
:105470009F4F089557FD9058440F551F59F05F3FB7
:1054800071F04795880F97FB991F61F09F3F79F066
:1054900087950895121613061406551FF2CF4695E8
:1054A000F1DF08C0161617061806991FF1CF86956A
:1054B0007105610508940895E894BB27662777274E
:1054C000CB0197F908950E94A52AA59F900DB49F3E
:1054D000900DA49F800D911D112408952F923F924D
:1054E0004F925F926F927F928F929F92AF92BF92F4
:1054F000CF92DF92EF92FF920F931F93CF93DF93A0
:10550000CDB7DEB7CA1BDB0B0FB6F894DEBF0FBEFC
:10551000CDBF09942A88398848885F846E847D8449
:105520008C849B84AA84B984C884DF80EE80FD804B
:105530000C811B81AA81B981CE0FD11D0FB6F894C1
:10554000DEBF0FBECDBFED010895A29FB001B39F96
:10555000C001A39F700D811D1124911DB29F700D7C
:10556000811D1124911D08955058BB27AA270E9420
:10557000CC2A0C94292A0E941B2A38F00E94222A45
:1055800020F039F49F3F19F426F40C94182A0EF4F5
:10559000E095E7FB0C94122AE92F0E943A2A58F36F
:1055A000BA17620773078407950720F079F4A6F508
:1055B0000C945C2A0EF4E0950B2EBA2FA02D0B0153
:1055C000B90190010C01CA01A0011124FF27591B48
:1055D00099F0593F50F4503E68F11A16F040A22F4E
:1055E000232F342F4427585FF3CF469537952795BF
:1055F000A795F0405395C9F77EF41F16BA0B620BBE
:10560000730B840BBAF09150A1F0FF0FBB1F661F04
:10561000771F881FC2F70EC0BA0F621F731F841F47
:1056200048F4879577956795B795F7959E3F08F06D
:10563000B0CF9395880F08F09927EE0F979587952F
:1056400008950E94352B0C94292A0E94222A58F092
:105650000E941B2A40F029F45F3F29F00C94122A83
:1056600051110C945D2A0C94182A0E943A2A68F36E
:105670009923B1F3552391F3951B550BBB27AA270B
:1056800062177307840738F09F5F5F4F220F331F45
:10569000441FAA1FA9F335D00E2E3AF0E0E832D00D
:1056A00091505040E695001CCAF72BD0FE2F29D010
:1056B000660F771F881FBB1F261737074807AB07E2
:1056C000B0E809F0BB0B802DBF01FF2793585F4F57
:1056D0003AF09E3F510578F00C94122A0C945D2A02
:1056E0005F3FE4F3983ED4F3869577956795B79539
:1056F000F7959F5FC9F7880F911D9695879597F944
:105700000895E1E0660F771F881FBB1F62177307BC
:105710008407BA0720F0621B730B840BBA0BEE1FD1
:1057200088F7E0950895DB018F939F930E94632A89
:10573000BF91AF91A29F800D911DA39F900DB29F2D
:10574000900D1124089597FB072E16F4009407D0AE
:1057500077FD09D00E94062C07FC05D03EF49095F9
:1057600081959F4F0895709561957F4F0895A1E2AF
:105770001A2EAA1BBB1BFD010DC0AA1FBB1FEE1FCB
:10578000FF1FA217B307E407F50720F0A21BB30B16
:10579000E40BF50B661F771F881F991F1A9469F792
:1057A00060957095809590959B01AC01BD01CF01EE
:1057B0000895052E97FB1EF400940E94F02B57FDD0
:1057C00007D00E94B72B07FC03D04EF40C94F02BAB
:1057D00050954095309521953F4F4F4F5F4F08951D
:1057E00090958095709561957F4F8F4F9F4F08954D
:1057F000EE0FFF1F0590F491E02D0994B7FF0C9474
:10580000632A0E94632A821B930B0895AA1BBB1B69
:1058100051E107C0AA1FBB1FA617B70710F0A61BB0
:10582000B70B881F991F5A95A9F780959095BC01D1
:10583000CD0108950F931F93CF93DF93823091058D
:1058400010F482E090E0E0914A04F0914B0430E0E3
:1058500020E0B0E0A0E0309799F42115310509F47B
:105860004AC0281B390B24303105D8F58A819B8129
:105870006115710589F1FB0193838283FE0111C0DB
:10588000408151810281138148175907E0F0481780
:10589000590799F4109761F012960C93129713968A
:1058A0001C933296CF01DF91CF911F910F910895F4
:1058B00000934A0410934B04F4CF2115310551F0A5
:1058C0004217530738F0A901DB019A01BD01DF013E
:1058D000F801C1CFEF01F9CF90934B0480934A04B4
:1058E000CDCFFE01E20FF31F819391932250310936
:1058F00039832883D7CF2091480430914904232B42
:1059000041F4209102013091030130934904209326
:10591000480420910001309101012115310541F425
:105920002DB73EB74091040150910501241B350B62
:10593000E0914804F0914904E217F307A0F42E1B0C
:105940003F0B2817390778F0AC014E5F5F4F2417E3
:10595000350748F04E0F5F1F5093490440934804A9
:10596000819391939FCFF0E0E0E09CCFCF93DF93C2
:105970000097E9F0FC01329713821282A0914A0449
:10598000B0914B04ED0130E020E01097A1F42081AC
:105990003181820F931F20914804309149042817C8
:1059A000390709F061C0F0934904E0934804DF919E
:1059B000CF910895EA01CE17DF07E8F54A815B81B0
:1059C0009E0141155105B1F7E901FB83EA83499135
:1059D0005991C40FD51FEC17FD0761F480819181A7
:1059E0000296840F951FE9019983888382819381B0
:1059F0009B838A83F0E0E0E012968D919C9113974F
:105A00000097B9F52D913C911197CD010296820F27
:105A1000931F20914804309149042817390739F61B
:105A2000309751F510924B0410924A04B0934904F8
:105A3000A0934804BCCFD383C28340815181840F9B
:105A4000951FC817D90761F44E5F5F4F8881998110
:105A5000480F591F518340838A819B81938382839E
:105A60002115310509F0B0CFF0934B04E0934A04BF
:105A70009ECFFD01DC01C0CF13821282D7CFB0E0F0
:105A8000A0E0E5E4FDE20C94702A8C01009751F44B
:105A9000CB010E941A2C8C01C801CDB7DEB7E0E122
:105AA0000C948C2AFC01E60FF71F9C01225031094F
:105AB000E217F30708F49DC0D901CD91DC9111974D
:105AC000C617D70798F0C530D10530F3CE0104973B
:105AD0008617970708F3C61BD70B2297C193D1935C
